:020000020000FC
:0C0000000C9434000C9486000C948100D9
:040014000C948B00BD
:040010000C949200BA
:040034000C946600C2
:10006800229A2A98249A2C98239A2B98259A2D9884
:1000780052985A9AE89A42E04093690053985B9ADA
:10008800E99A54985C982198299840E140936D002A
:1000980042E040936B0045E0409368000E945600A0
:1000A8007894FFCF4BE0409385004CED409384005B
:1000B80044274093800044E04093810041E040930E
:1000C8006F000895552311F42B9801C05A956623A3
:1000D80011F42A9801C06A95772311F42C9801C06D
:1000E8007A95882311F42D9801C08A954BE04093A6
:1000F80085004CED409384001895552311F42B9AF4
:1001080053E01895662311F42A9A63E018954C9BDE
:1001180004C0772311F42C9A73E01895199B04C036
:0A012800882311F42D9A83E0189546
:00000001FF
