:020000020000FC
:0C0000000C9434000C9484000C948900D3
:040014000C948E00BA
:04000C000C949500BB
:040034000C946900BF
:10006800229A2A98249A2C98239A2B98259A2D9884
:1000780052985A9AE89A42E04093690053985B9ADA
:10008800E99A54985C9840E140936D0044E04093AD
:10009800680055985D9831E030936B0031E03093FB
:1000A80068000E9459007894FFCF4BE04093850088
:1000B8004CED4093840044274093800044E04093F3
:1000C800810041E040936F000895552311F42A9868
:1000D80001C05A95662311F42C9801C06A957723BC
:1000E80011F42B9801C07A95882311F42D9801C03A
:1000F8008A954BE0409385004CED40938400189519
:10010800552311F42A9A53E01895772311F42B9A62
:1001180073E018954C9B04C0662311F42C9A63E095
:1001280018954D9B04C0882311F42D9A83E01895E7
:00000001FF
